{
  "_format": "hh-sol-artifact-1",
  "contractName": "Token",
  "sourceName": "contracts/token.sol",
  "abi": [
    {
      "inputs": [],
      "stateMutability": "nonpayable",
      "type": "constructor"
    },
    {
      "inputs": [
        {
          "internalType": "address",
          "name": "accountAddress",
          "type": "address"
        }
      ],
      "name": "checkBalance",
      "outputs": [
        {
          "internalType": "uint256",
          "name": "",
          "type": "uint256"
        }
      ],
      "stateMutability": "view",
      "type": "function"
    },
    {
      "inputs": [],
      "name": "name",
      "outputs": [
        {
          "internalType": "string",
          "name": "",
          "type": "string"
        }
      ],
      "stateMutability": "view",
      "type": "function"
    },
    {
      "inputs": [],
      "name": "owner",
      "outputs": [
        {
          "internalType": "address",
          "name": "",
          "type": "address"
        }
      ],
      "stateMutability": "view",
      "type": "function"
    },
    {
      "inputs": [
        {
          "internalType": "address",
          "name": "to",
          "type": "address"
        },
        {
          "internalType": "uint256",
          "name": "tokenCount",
          "type": "uint256"
        }
      ],
      "name": "sendTokens",
      "outputs": [],
      "stateMutability": "nonpayable",
      "type": "function"
    },
    {
      "inputs": [],
      "name": "symbol",
      "outputs": [
        {
          "internalType": "string",
          "name": "",
          "type": "string"
        }
      ],
      "stateMutability": "view",
      "type": "function"
    },
    {
      "inputs": [],
      "name": "totalTokenCount",
      "outputs": [
        {
          "internalType": "uint256",
          "name": "",
          "type": "uint256"
        }
      ],
      "stateMutability": "view",
      "type": "function"
    }
  ],
  "bytecode": "0x60806040526040518060400160405280600781526020017f4d79546f6b656e00000000000000000000000000000000000000000000000000815250600090816200004a9190620003ad565b506040518060400160405280600281526020017f484800000000000000000000000000000000000000000000000000000000000081525060019081620000919190620003ad565b50611388600255348015620000a557600080fd5b50600254600460003373ffffffffffffffffffffffffffffffffffffffff1673ffffffffffffffffffffffffffffffffffffffff1681526020019081526020016000208190555033600360006101000a81548173ffffffffffffffffffffffffffffffffffffffff021916908373ffffffffffffffffffffffffffffffffffffffff16021790555062000494565b600081519050919050565b7f4e487b7100000000000000000000000000000000000000000000000000000000600052604160045260246000fd5b7f4e487b7100000000000000000000000000000000000000000000000000000000600052602260045260246000fd5b60006002820490506001821680620001b557607f821691505b602082108103620001cb57620001ca6200016d565b5b50919050565b60008190508160005260206000209050919050565b60006020601f8301049050919050565b600082821b905092915050565b600060088302620002357fffffffffffffffffffffffffffffffffffffffffffffffffffffffffffffffff82620001f6565b620002418683620001f6565b95508019841693508086168417925050509392505050565b6000819050919050565b6000819050919050565b60006200028e62000288620002828462000259565b62000263565b62000259565b9050919050565b6000819050919050565b620002aa836200026d565b620002c2620002b98262000295565b84845462000203565b825550505050565b600090565b620002d9620002ca565b620002e68184846200029f565b505050565b5b818110156200030e5762000302600082620002cf565b600181019050620002ec565b5050565b601f8211156200035d576200032781620001d1565b6200033284620001e6565b8101602085101562000342578190505b6200035a6200035185620001e6565b830182620002eb565b50505b505050565b600082821c905092915050565b6000620003826000198460080262000362565b1980831691505092915050565b60006200039d83836200036f565b9150826002028217905092915050565b620003b88262000133565b67ffffffffffffffff811115620003d457620003d36200013e565b5b620003e082546200019c565b620003ed82828562000312565b600060209050601f83116001811462000425576000841562000410578287015190505b6200041c85826200038f565b8655506200048c565b601f1984166200043586620001d1565b60005b828110156200045f5784890151825560018201915060208501945060208101905062000438565b868310156200047f57848901516200047b601f8916826200036f565b8355505b6001600288020188555050505b505050505050565b610a3f80620004a46000396000f3fe608060405234801561001057600080fd5b50600436106100625760003560e01c806305ab421d1461006757806306fdde03146100835780635f515226146100a1578063764912ef146100d15780638da5cb5b146100ef57806395d89b411461010d575b600080fd5b610081600480360381019061007c91906106ae565b61012b565b005b61008b610398565b604051610098919061077e565b60405180910390f35b6100bb60048036038101906100b691906107a0565b610426565b6040516100c891906107dc565b60405180910390f35b6100d961046f565b6040516100e691906107dc565b60405180910390f35b6100f7610475565b6040516101049190610806565b60405180910390f35b61011561049b565b604051610122919061077e565b60405180910390f35b80600460003373ffffffffffffffffffffffffffffffffffffffff1673ffffffffffffffffffffffffffffffffffffffff1681526020019081526020016000205410156101ad576040517f08c379a00000000000000000000000000000000000000000000000000000000081526004016101a490610893565b60405180910390fd5b61022b6040518060400160405280601581526020017f2a2a2a73656e6465722062616c616e63652069733a0000000000000000000000815250600460003373ffffffffffffffffffffffffffffffffffffffff1673ffffffffffffffffffffffffffffffffffffffff16815260200190815260200160002054610529565b61026a6040518060400160405280601d81526020017f2a2a73656e6465722069732073656e64696e6720257320746f6b656e7300000081525082610529565b80600460003373ffffffffffffffffffffffffffffffffffffffff1673ffffffffffffffffffffffffffffffffffffffff16815260200190815260200160002060008282546102b991906108e2565b9250508190555080600460008473ffffffffffffffffffffffffffffffffffffffff1673ffffffffffffffffffffffffffffffffffffffff168152602001908152602001600020600082825461030f9190610916565b925050819055506103946040518060400160405280601081526020017f2a2a73656e646572206e6f772068617300000000000000000000000000000000815250600460003373ffffffffffffffffffffffffffffffffffffffff1673ffffffffffffffffffffffffffffffffffffffff16815260200190815260200160002054610529565b5050565b600080546103a590610979565b80601f01602080910402602001604051908101604052809291908181526020018280546103d190610979565b801561041e5780601f106103f35761010080835404028352916020019161041e565b820191906000526020600020905b81548152906001019060200180831161040157829003601f168201915b505050505081565b6000600460008373ffffffffffffffffffffffffffffffffffffffff1673ffffffffffffffffffffffffffffffffffffffff168152602001908152602001600020549050919050565b60025481565b600360009054906101000a900473ffffffffffffffffffffffffffffffffffffffff1681565b600180546104a890610979565b80601f01602080910402602001604051908101604052809291908181526020018280546104d490610979565b80156105215780601f106104f657610100808354040283529160200191610521565b820191906000526020600020905b81548152906001019060200180831161050457829003601f168201915b505050505081565b6105c1828260405160240161053f9291906109aa565b6040516020818303038152906040527fb60e72cc000000000000000000000000000000000000000000000000000000007bffffffffffffffffffffffffffffffffffffffffffffffffffffffff19166020820180517bffffffffffffffffffffffffffffffffffffffffffffffffffffffff83818316178352505050506105c5565b5050565b6105dc816105d46105df610600565b63ffffffff16565b50565b60006a636f6e736f6c652e6c6f679050600080835160208501845afa505050565b61060b819050919050565b6106136109da565b565b600080fd5b600073ffffffffffffffffffffffffffffffffffffffff82169050919050565b60006106458261061a565b9050919050565b6106558161063a565b811461066057600080fd5b50565b6000813590506106728161064c565b92915050565b6000819050919050565b61068b81610678565b811461069657600080fd5b50565b6000813590506106a881610682565b92915050565b600080604083850312156106c5576106c4610615565b5b60006106d385828601610663565b92505060206106e485828601610699565b9150509250929050565b600081519050919050565b600082825260208201905092915050565b60005b8381101561072857808201518184015260208101905061070d565b60008484015250505050565b6000601f19601f8301169050919050565b6000610750826106ee565b61075a81856106f9565b935061076a81856020860161070a565b61077381610734565b840191505092915050565b600060208201905081810360008301526107988184610745565b905092915050565b6000602082840312156107b6576107b5610615565b5b60006107c484828501610663565b91505092915050565b6107d681610678565b82525050565b60006020820190506107f160008301846107cd565b92915050565b6108008161063a565b82525050565b600060208201905061081b60008301846107f7565b92915050565b7f596f752068617665206c65737320746f6b656e73207468616e20796f7520776160008201527f6e7420746f207472616e73666572000000000000000000000000000000000000602082015250565b600061087d602e836106f9565b915061088882610821565b604082019050919050565b600060208201905081810360008301526108ac81610870565b9050919050565b7f4e487b7100000000000000000000000000000000000000000000000000000000600052601160045260246000fd5b60006108ed82610678565b91506108f883610678565b92508282039050818111156109105761090f6108b3565b5b92915050565b600061092182610678565b915061092c83610678565b9250828201905080821115610944576109436108b3565b5b92915050565b7f4e487b7100000000000000000000000000000000000000000000000000000000600052602260045260246000fd5b6000600282049050600182168061099157607f821691505b6020821081036109a4576109a361094a565b5b50919050565b600060408201905081810360008301526109c48185610745565b90506109d360208301846107cd565b9392505050565b7f4e487b7100000000000000000000000000000000000000000000000000000000600052605160045260246000fdfea2646970667358221220a2b89a65b12ffaab3014b604b6900adf43cfb7b37242a79a9ea3d8f3fff1489064736f6c63430008130033",
  "linkReferences": {},
  "deployedLinkReferences": {}
}