{
  "_format": "hh-sol-artifact-1",
  "contractName": "Token",
  "sourceName": "contracts/token.sol",
  "abi": [
    {
      "inputs": [],
      "stateMutability": "nonpayable",
      "type": "constructor"
    },
    {
      "inputs": [
        {
          "internalType": "address",
          "name": "accountAddress",
          "type": "address"
        }
      ],
      "name": "checkBalance",
      "outputs": [
        {
          "internalType": "uint256",
          "name": "",
          "type": "uint256"
        }
      ],
      "stateMutability": "view",
      "type": "function"
    },
    {
      "inputs": [],
      "name": "name",
      "outputs": [
        {
          "internalType": "string",
          "name": "",
          "type": "string"
        }
      ],
      "stateMutability": "view",
      "type": "function"
    },
    {
      "inputs": [],
      "name": "owner",
      "outputs": [
        {
          "internalType": "address",
          "name": "",
          "type": "address"
        }
      ],
      "stateMutability": "view",
      "type": "function"
    },
    {
      "inputs": [
        {
          "internalType": "address",
          "name": "to",
          "type": "address"
        },
        {
          "internalType": "uint256",
          "name": "tokenCount",
          "type": "uint256"
        }
      ],
      "name": "sendTokens",
      "outputs": [],
      "stateMutability": "nonpayable",
      "type": "function"
    },
    {
      "inputs": [],
      "name": "symbol",
      "outputs": [
        {
          "internalType": "string",
          "name": "",
          "type": "string"
        }
      ],
      "stateMutability": "view",
      "type": "function"
    },
    {
      "inputs": [],
      "name": "totalTokenCount",
      "outputs": [
        {
          "internalType": "uint256",
          "name": "",
          "type": "uint256"
        }
      ],
      "stateMutability": "view",
      "type": "function"
    }
  ],
  "bytecode": "0x60806040526040518060400160405280600781526020017f4d79546f6b656e00000000000000000000000000000000000000000000000000815250600090816200004a919062000582565b506040518060400160405280600281526020017f48480000000000000000000000000000000000000000000000000000000000008152506001908162000091919062000582565b50611388600255348015620000a557600080fd5b50600254600460003373ffffffffffffffffffffffffffffffffffffffff1673ffffffffffffffffffffffffffffffffffffffff1681526020019081526020016000208190555033600360006101000a81548173ffffffffffffffffffffffffffffffffffffffff021916908373ffffffffffffffffffffffffffffffffffffffff160217905550620001ef60405180606001604052806029815260200162000fa66029913960046000600360009054906101000a900473ffffffffffffffffffffffffffffffffffffffff1673ffffffffffffffffffffffffffffffffffffffff1673ffffffffffffffffffffffffffffffffffffffff168152602001908152602001600020546040518060400160405280600781526020017f20746f6b656e7300000000000000000000000000000000000000000000000000815250620001f560201b60201c565b62000783565b62000299838383604051602401620002109392919062000709565b6040516020818303038152906040527f5970e089000000000000000000000000000000000000000000000000000000007bffffffffffffffffffffffffffffffffffffffffffffffffffffffff19166020820180517bffffffffffffffffffffffffffffffffffffffffffffffffffffffff83818316178352505050506200029e60201b60201c565b505050565b620002c481620002bf620002c760201b620003ee17620002e860201b60201c565b60201c565b50565b60006a636f6e736f6c652e6c6f679050600080835160208501845afa505050565b620002fc60201b6200040f17819050919050565b6200030662000754565b565b600081519050919050565b7f4e487b7100000000000000000000000000000000000000000000000000000000600052604160045260246000fd5b7f4e487b7100000000000000000000000000000000000000000000000000000000600052602260045260246000fd5b600060028204905060018216806200038a57607f821691505b602082108103620003a0576200039f62000342565b5b50919050565b60008190508160005260206000209050919050565b60006020601f8301049050919050565b600082821b905092915050565b6000600883026200040a7fffffffffffffffffffffffffffffffffffffffffffffffffffffffffffffffff82620003cb565b620004168683620003cb565b95508019841693508086168417925050509392505050565b6000819050919050565b6000819050919050565b6000620004636200045d62000457846200042e565b62000438565b6200042e565b9050919050565b6000819050919050565b6200047f8362000442565b620004976200048e826200046a565b848454620003d8565b825550505050565b600090565b620004ae6200049f565b620004bb81848462000474565b505050565b5b81811015620004e357620004d7600082620004a4565b600181019050620004c1565b5050565b601f8211156200053257620004fc81620003a6565b6200050784620003bb565b8101602085101562000517578190505b6200052f6200052685620003bb565b830182620004c0565b50505b505050565b600082821c905092915050565b6000620005576000198460080262000537565b1980831691505092915050565b600062000572838362000544565b9150826002028217905092915050565b6200058d8262000308565b67ffffffffffffffff811115620005a957620005a862000313565b5b620005b5825462000371565b620005c2828285620004e7565b600060209050601f831160018114620005fa5760008415620005e5578287015190505b620005f1858262000564565b86555062000661565b601f1984166200060a86620003a6565b60005b8281101562000634578489015182556001820191506020850194506020810190506200060d565b8683101562000654578489015162000650601f89168262000544565b8355505b6001600288020188555050505b505050505050565b600082825260208201905092915050565b60005b838110156200069a5780820151818401526020810190506200067d565b60008484015250505050565b6000601f19601f8301169050919050565b6000620006c48262000308565b620006d0818562000669565b9350620006e28185602086016200067a565b620006ed81620006a6565b840191505092915050565b62000703816200042e565b82525050565b60006060820190508181036000830152620007258186620006b7565b9050620007366020830185620006f8565b81810360408301526200074a8184620006b7565b9050949350505050565b7f4e487b7100000000000000000000000000000000000000000000000000000000600052605160045260246000fd5b61081380620007936000396000f3fe608060405234801561001057600080fd5b50600436106100625760003560e01c806305ab421d1461006757806306fdde03146100835780635f515226146100a1578063764912ef146100d15780638da5cb5b146100ef57806395d89b411461010d575b600080fd5b610081600480360381019061007c91906104b2565b61012b565b005b61008b61025d565b6040516100989190610582565b60405180910390f35b6100bb60048036038101906100b691906105a4565b6102eb565b6040516100c891906105e0565b60405180910390f35b6100d9610334565b6040516100e691906105e0565b60405180910390f35b6100f761033a565b604051610104919061060a565b60405180910390f35b610115610360565b6040516101229190610582565b60405180910390f35b80600460003373ffffffffffffffffffffffffffffffffffffffff1673ffffffffffffffffffffffffffffffffffffffff1681526020019081526020016000205410156101ad576040517f08c379a00000000000000000000000000000000000000000000000000000000081526004016101a490610697565b60405180910390fd5b80600460003373ffffffffffffffffffffffffffffffffffffffff1673ffffffffffffffffffffffffffffffffffffffff16815260200190815260200160002060008282546101fc91906106e6565b9250508190555080600460008473ffffffffffffffffffffffffffffffffffffffff1673ffffffffffffffffffffffffffffffffffffffff1681526020019081526020016000206000828254610252919061071a565b925050819055505050565b6000805461026a9061077d565b80601f01602080910402602001604051908101604052809291908181526020018280546102969061077d565b80156102e35780601f106102b8576101008083540402835291602001916102e3565b820191906000526020600020905b8154815290600101906020018083116102c657829003601f168201915b505050505081565b6000600460008373ffffffffffffffffffffffffffffffffffffffff1673ffffffffffffffffffffffffffffffffffffffff168152602001908152602001600020549050919050565b60025481565b600360009054906101000a900473ffffffffffffffffffffffffffffffffffffffff1681565b6001805461036d9061077d565b80601f01602080910402602001604051908101604052809291908181526020018280546103999061077d565b80156103e65780601f106103bb576101008083540402835291602001916103e6565b820191906000526020600020905b8154815290600101906020018083116103c957829003601f168201915b505050505081565b60006a636f6e736f6c652e6c6f679050600080835160208501845afa505050565b6104176107ae565b565b600080fd5b600073ffffffffffffffffffffffffffffffffffffffff82169050919050565b60006104498261041e565b9050919050565b6104598161043e565b811461046457600080fd5b50565b60008135905061047681610450565b92915050565b6000819050919050565b61048f8161047c565b811461049a57600080fd5b50565b6000813590506104ac81610486565b92915050565b600080604083850312156104c9576104c8610419565b5b60006104d785828601610467565b92505060206104e88582860161049d565b9150509250929050565b600081519050919050565b600082825260208201905092915050565b60005b8381101561052c578082015181840152602081019050610511565b60008484015250505050565b6000601f19601f8301169050919050565b6000610554826104f2565b61055e81856104fd565b935061056e81856020860161050e565b61057781610538565b840191505092915050565b6000602082019050818103600083015261059c8184610549565b905092915050565b6000602082840312156105ba576105b9610419565b5b60006105c884828501610467565b91505092915050565b6105da8161047c565b82525050565b60006020820190506105f560008301846105d1565b92915050565b6106048161043e565b82525050565b600060208201905061061f60008301846105fb565b92915050565b7f596f752068617665206c65737320746f6b656e73207468616e20796f7520776160008201527f6e7420746f207472616e73666572000000000000000000000000000000000000602082015250565b6000610681602e836104fd565b915061068c82610625565b604082019050919050565b600060208201905081810360008301526106b081610674565b9050919050565b7f4e487b7100000000000000000000000000000000000000000000000000000000600052601160045260246000fd5b60006106f18261047c565b91506106fc8361047c565b9250828203905081811115610714576107136106b7565b5b92915050565b60006107258261047c565b91506107308361047c565b9250828201905080821115610748576107476106b7565b5b92915050565b7f4e487b7100000000000000000000000000000000000000000000000000000000600052602260045260246000fd5b6000600282049050600182168061079557607f821691505b6020821081036107a8576107a761074e565b5b50919050565b7f4e487b7100000000000000000000000000000000000000000000000000000000600052605160045260246000fdfea2646970667358221220d09a6ae9115799dc5189ce52a1aa1c69fb66bfeb7a2e201c1e5f3930ebff12ca64736f6c63430008130033636f6e7374727563746f7220696e697469616c697a65642c206f776e65722068617320746f74616c3a",
  "linkReferences": {},
  "deployedLinkReferences": {}
}